{
  "contractName": "Balance",
  "abi": [
    {
      "inputs": [
        {
          "name": "amount",
          "type": "uint256"
        }
      ],
      "payable": false,
      "stateMutability": "nonpayable",
      "type": "function",
      "constant": false,
      "name": "withdraw",
      "outputs": [
        {
          "name": "",
          "type": "uint256"
        }
      ]
    },
    {
      "constant": false,
      "inputs": [
        {
          "name": "inputMoney",
          "type": "uint256"
        }
      ],
      "name": "deposit",
      "outputs": [],
      "payable": true,
      "stateMutability": "payable",
      "type": "function"
    },
    {
      "constant": true,
      "inputs": [],
      "name": "chceckBalance",
      "outputs": [
        {
          "name": "",
          "type": "uint256"
        }
      ],
      "payable": false,
      "stateMutability": "view",
      "type": "function"
    },
    {
      "inputs": [],
      "payable": false,
      "stateMutability": "nonpayable",
      "type": "constructor"
    },
    {
      "payable": true,
      "stateMutability": "payable",
      "type": "fallback"
    }
  ],
  "bytecode": "0x6060604052341561000f57600080fd5b6102ac8061001e6000396000f300606060405260043610610057576000357c0100000000000000000000000000000000000000000000000000000000900463ffffffff1680632e1a7d4d14610070578063b6b55f25146100a7578063e1d3ec35146100bf575b3373ffffffffffffffffffffffffffffffffffffffff16ff5b341561007b57600080fd5b61009160048080359060200190919050506100e8565b6040518082815260200191505060405180910390f35b6100bd60048080359060200190919050506101cf565b005b34156100ca57600080fd5b6100d261023a565b6040518082815260200191505060405180910390f35b6000816000803373ffffffffffffffffffffffffffffffffffffffff1673ffffffffffffffffffffffffffffffffffffffff168152602001908152602001600020541015156101c557816000803373ffffffffffffffffffffffffffffffffffffffff1673ffffffffffffffffffffffffffffffffffffffff168152602001908152602001600020600082825403925050819055503373ffffffffffffffffffffffffffffffffffffffff166108fc839081150290604051600060405180830381858888f1935050505015156101bd57600080fd5b8190506101ca565b600090505b919050565b8034811415156101de57600080fd5b816000803373ffffffffffffffffffffffffffffffffffffffff1673ffffffffffffffffffffffffffffffffffffffff16815260200190815260200160002060008282540192505081905550600a8211151561023657fe5b5050565b60008060003373ffffffffffffffffffffffffffffffffffffffff1673ffffffffffffffffffffffffffffffffffffffff168152602001908152602001600020549050905600a165627a7a72305820de0b5590bb8bfa200732fbe2f3b00068e3321a1dd9f2360248d2ab1e4eae243e0029",
  "source": "pragma solidity ^0.4.11;\n\ncontract Balance {\n  mapping (address => uint256) private balances;\n\n  function Balance() {\n    // constructor\n  }\n\n\n    modifier costs(uint256 money) {\n      require(money == msg.value);\n      _;\n    }\n\n    function deposit(uint256 inputMoney) payable costs(inputMoney) {\n        balances[msg.sender] += inputMoney;\n        assert(inputMoney > 10);\n    }\n\n    function withdraw(uint amount) returns(uint256) {\n      if(balances[msg.sender] >= amount){\n        balances[msg.sender] -= amount;\n        msg.sender.transfer(amount);\n        return amount;\n      }\n      return 0;\n    }\n\n  function chceckBalance() constant returns(uint256){\n    return balances[msg.sender];\n  }\n\n    function() payable{\n      selfdestruct(msg.sender);\n      balances[msg.sender] += msg.value;\n    }\n}\n",
  "sourcePath": "/home/szymon/IdeaProjects/first-truffle/contracts/Balance.sol",
  "compiler": {
    "name": "solc",
    "version": "0.4.18+commit.9cf6e910.Emscripten.clang"
  },
  "schemaVersion": "1.0.1",
  "updatedAt": "2017-11-27T22:04:16.977Z"
}