{
  "contractName": "Calculator",
  "abi": [
    {
      "constant": false,
      "inputs": [
        {
          "name": "toAdd",
          "type": "uint256"
        }
      ],
      "name": "add",
      "outputs": [
        {
          "name": "",
          "type": "uint256"
        }
      ],
      "payable": false,
      "type": "function",
      "stateMutability": "nonpayable"
    },
    {
      "constant": false,
      "inputs": [
        {
          "name": "toSubtract",
          "type": "uint256"
        }
      ],
      "name": "subtract",
      "outputs": [
        {
          "name": "",
          "type": "uint256"
        }
      ],
      "payable": false,
      "type": "function",
      "stateMutability": "nonpayable"
    },
    {
      "constant": true,
      "inputs": [],
      "name": "getResult",
      "outputs": [
        {
          "name": "",
          "type": "uint256"
        }
      ],
      "payable": false,
      "type": "function",
      "stateMutability": "view"
    },
    {
      "inputs": [
        {
          "name": "initial",
          "type": "uint256"
        }
      ],
      "payable": false,
      "type": "constructor",
      "stateMutability": "nonpayable"
    }
  ],
  "bytecode": "0x6060604052341561000f57600080fd5b604051602080610196833981016040528080519060200190919050508060008190555050610154806100426000396000f300606060405260043610610057576000357c0100000000000000000000000000000000000000000000000000000000900463ffffffff1680631003e2d21461005c5780631dc05f1714610093578063de292789146100ca575b600080fd5b341561006757600080fd5b61007d60048080359060200190919050506100f3565b6040518082815260200191505060405180910390f35b341561009e57600080fd5b6100b46004808035906020019091905050610109565b6040518082815260200191505060405180910390f35b34156100d557600080fd5b6100dd61011f565b6040518082815260200191505060405180910390f35b6000816000808282540192505081905550919050565b6000816000808282540392505081905550919050565b600080549050905600a165627a7a7230582080ef1434e490e7f82ac4a9e646a255d6f5c01f23be57359964009273072893a20029",
  "source": "pragma solidity ^0.4.4;\n\n\ncontract Calculator {\n    uint result;\n\n    function Calculator(uint initial) {\n        result = initial;\n        // constructor\n    }\n\n    function getResult() constant returns (uint){\n        return result;\n    }\n\n    function add(uint toAdd) returns (uint){\n        result += toAdd;\n    }\n\n    function subtract(uint toSubtract) returns (uint){\n        result -= toSubtract;\n    }\n}\n",
  "sourcePath": "/home/szymon/IdeaProjects/first-truffle/contracts/Calculator.sol",
  "compiler": {
    "name": "solc",
    "version": "0.4.18+commit.9cf6e910.Emscripten.clang"
  },
  "schemaVersion": "1.0.1",
  "updatedAt": "2017-11-27T22:04:16.974Z"
}