{
  "contractName": "MultiNumberBettingV2",
  "abi": [
    {
      "constant": true,
      "inputs": [],
      "name": "getLose",
      "outputs": [
        {
          "name": "",
          "type": "uint256"
        }
      ],
      "payable": false,
      "stateMutability": "view",
      "type": "function"
    },
    {
      "constant": true,
      "inputs": [],
      "name": "totalGuesses",
      "outputs": [
        {
          "name": "",
          "type": "uint256"
        }
      ],
      "payable": false,
      "stateMutability": "view",
      "type": "function"
    },
    {
      "constant": false,
      "inputs": [
        {
          "name": "g",
          "type": "uint8"
        },
        {
          "name": "name",
          "type": "string"
        }
      ],
      "name": "guess",
      "outputs": [
        {
          "name": "",
          "type": "bool"
        }
      ],
      "payable": false,
      "stateMutability": "nonpayable",
      "type": "function"
    },
    {
      "constant": true,
      "inputs": [],
      "name": "getWin",
      "outputs": [
        {
          "name": "",
          "type": "uint256"
        }
      ],
      "payable": false,
      "stateMutability": "view",
      "type": "function"
    },
    {
      "constant": false,
      "inputs": [],
      "name": "getLastWinner",
      "outputs": [
        {
          "name": "",
          "type": "bytes"
        }
      ],
      "payable": false,
      "stateMutability": "nonpayable",
      "type": "function"
    },
    {
      "inputs": [
        {
          "name": "first",
          "type": "uint8"
        },
        {
          "name": "second",
          "type": "uint8"
        },
        {
          "name": "third",
          "type": "uint8"
        }
      ],
      "payable": false,
      "stateMutability": "nonpayable",
      "type": "constructor"
    }
  ],
  "bytecode": "0x6060604052341561000f57600080fd5b6040516060806106448339810160405280805190602001909190805190602001909190805190602001909190505060018360ff16101580156100555750600a8360ff1611155b8015610075575060018260ff16101580156100745750600a8260ff1611155b5b8015610095575060018160ff16101580156100945750600a8160ff1611155b5b15156100a057600080fd5b600080548060010182816100b49190610184565b916000526020600020906020918282040191900685909190916101000a81548160ff021916908360ff16021790555050600080548060010182816100f89190610184565b916000526020600020906020918282040191900684909190916101000a81548160ff021916908360ff160217905550506000805480600101828161013c9190610184565b916000526020600020906020918282040191900683909190916101000a81548160ff021916908360ff16021790555050600060018190555060006002819055505050506101e3565b8154818355818115116101b957601f016020900481601f016020900483600052602060002091820191016101b891906101be565b5b505050565b6101e091905b808211156101dc5760008160009055506001016101c4565b5090565b90565b610452806101f26000396000f30060606040526004361061006d576000357c0100000000000000000000000000000000000000000000000000000000900463ffffffff1680637339d3eb146100725780638ef282491461009b57806395583f71146100c4578063d6d36b9214610145578063f88649a11461016e575b600080fd5b341561007d57600080fd5b6100856101fc565b6040518082815260200191505060405180910390f35b34156100a657600080fd5b6100ae610206565b6040518082815260200191505060405180910390f35b34156100cf57600080fd5b61012b600480803560ff1690602001909190803590602001908201803590602001908080601f01602080910402602001604051908101604052809392919081815260200183838082843782019150505050505091905050610214565b604051808215151515815260200191505060405180910390f35b341561015057600080fd5b6101586102bb565b6040518082815260200191505060405180910390f35b341561017957600080fd5b6101816102c5565b6040518080602001828103825283818151815260200191508051906020019080838360005b838110156101c15780820151818401526020810190506101a6565b50505050905090810190601f1680156101ee5780820380516001836020036101000a031916815260200191505b509250505060405180910390f35b6000600154905090565b600060025460015401905090565b600080600090505b6000805490508160ff1610156102a45760008160ff1681548110151561023e57fe5b90600052602060002090602091828204019190069054906101000a900460ff1660ff168460ff16141561029757600160025401600281905550826003908051906020019061028d92919061036d565b50600191506102b4565b808060010191505061021c565b6001805401600181905550600091505b5092915050565b6000600254905090565b6102cd6103ed565b60038054600181600116156101000203166002900480601f0160208091040260200160405190810160405280929190818152602001828054600181600116156101000203166002900480156103635780601f1061033857610100808354040283529160200191610363565b820191906000526020600020905b81548152906001019060200180831161034657829003601f168201915b5050505050905090565b828054600181600116156101000203166002900490600052602060002090601f016020900481019282601f106103ae57805160ff19168380011785556103dc565b828001600101855582156103dc579182015b828111156103db5782518255916020019190600101906103c0565b5b5090506103e99190610401565b5090565b602060405190810160405280600081525090565b61042391905b8082111561041f576000816000905550600101610407565b5090565b905600a165627a7a72305820b82775b7666d5d9bbb071b344e16bde586851e62d7e654e88f0339f867cd842a0029",
  "source": "pragma solidity ^0.4.11;\n\ncontract MultiNumberBettingV2 {\n  uint8[] arr;\n  uint loserCount;\n  uint winnerCount;\n  string winner;\n\n  function MultiNumberBettingV2(uint8 first, uint8 second, uint8 third) {\n    require((first >=1 && first <=10) && (second >=1 && second <=10) && (third >=1 && third <=10));\n      arr.push(first);\n      arr.push(second);\n      arr.push(third);\n      loserCount = 0;\n      winnerCount = 0;\n    // constructor\n  }\n\n\n  function getLastWinner() returns(bytes){\n    return bytes(winner);\n  }\n\n  function guess(uint8 g, string name) returns (bool){\n    for(uint8 i = 0; i < arr.length; i++ ) {\n      if(g == arr[i]) {\n        winnerCount = winnerCount + 1;\n        winner = name;\n        return true;\n      }\n\n    }\n      loserCount = loserCount +1;\n    return false;\n  }\n\n  function getWin() constant returns (uint) {\n    return winnerCount;\n  }\n\n  function getLose() constant returns (uint) {\n    return loserCount;\n  }\n\n  function totalGuesses() constant returns (uint) {\n    return loserCount + winnerCount;\n  }\n\n}\n",
  "sourcePath": "/home/szymon/IdeaProjects/first-truffle/contracts/MultiNumberBettingV2.sol",
  "compiler": {
    "name": "solc",
    "version": "0.4.18+commit.9cf6e910.Emscripten.clang"
  },
  "schemaVersion": "1.0.1",
  "updatedAt": "2017-11-30T22:17:02.238Z"
}