{
  "contractName": "MultiNumberBettingV1",
  "abi": [
    {
      "constant": false,
      "inputs": [
        {
          "name": "g",
          "type": "uint8"
        }
      ],
      "name": "guess",
      "outputs": [
        {
          "name": "",
          "type": "bool"
        }
      ],
      "payable": false,
      "stateMutability": "nonpayable",
      "type": "function"
    },
    {
      "constant": true,
      "inputs": [],
      "name": "getLose",
      "outputs": [
        {
          "name": "",
          "type": "uint256"
        }
      ],
      "payable": false,
      "stateMutability": "view",
      "type": "function"
    },
    {
      "constant": true,
      "inputs": [],
      "name": "totalGuesses",
      "outputs": [
        {
          "name": "",
          "type": "uint256"
        }
      ],
      "payable": false,
      "stateMutability": "view",
      "type": "function"
    },
    {
      "constant": true,
      "inputs": [],
      "name": "getWin",
      "outputs": [
        {
          "name": "",
          "type": "uint256"
        }
      ],
      "payable": false,
      "stateMutability": "view",
      "type": "function"
    },
    {
      "inputs": [
        {
          "name": "first",
          "type": "uint8"
        },
        {
          "name": "second",
          "type": "uint8"
        },
        {
          "name": "third",
          "type": "uint8"
        }
      ],
      "payable": false,
      "stateMutability": "nonpayable",
      "type": "constructor"
    },
    {
      "payable": false,
      "stateMutability": "nonpayable",
      "type": "fallback"
    }
  ],
  "bytecode": "0x6060604052341561000f57600080fd5b6040516060806103fa8339810160405280805190602001909190805190602001909190805190602001909190505060018360ff16101580156100555750600a8360ff1611155b8015610075575060018260ff16101580156100745750600a8260ff1611155b5b8015610095575060018160ff16101580156100945750600a8160ff1611155b5b15156100a057600080fd5b600080548060010182816100b49190610184565b916000526020600020906020918282040191900685909190916101000a81548160ff021916908360ff16021790555050600080548060010182816100f89190610184565b916000526020600020906020918282040191900684909190916101000a81548160ff021916908360ff160217905550506000805480600101828161013c9190610184565b916000526020600020906020918282040191900683909190916101000a81548160ff021916908360ff16021790555050600060018190555060006002819055505050506101e3565b8154818355818115116101b957601f016020900481601f016020900483600052602060002091820191016101b891906101be565b5b505050565b6101e091905b808211156101dc5760008160009055506001016101c4565b5090565b90565b610208806101f26000396000f300606060405260043610610062576000357c0100000000000000000000000000000000000000000000000000000000900463ffffffff1680634ba4c16b146100725780637339d3eb146100b05780638ef28249146100d9578063d6d36b9214610102575b341561006d57600080fd5b600080fd5b341561007d57600080fd5b610096600480803560ff1690602001909190505061012b565b604051808215151515815260200191505060405180910390f35b34156100bb57600080fd5b6100c36101ba565b6040518082815260200191505060405180910390f35b34156100e457600080fd5b6100ec6101c4565b6040518082815260200191505060405180910390f35b341561010d57600080fd5b6101156101d2565b6040518082815260200191505060405180910390f35b600080600090505b6000805490508160ff1610156101a45760008160ff1681548110151561015557fe5b90600052602060002090602091828204019190069054906101000a900460ff1660ff168360ff16141561019757600160025401600281905550600191506101b4565b8080600101915050610133565b6001805401600181905550600091505b50919050565b6000600154905090565b600060025460015401905090565b60006002549050905600a165627a7a72305820e82cc22ef0c4e161cd46c33699084820402be0384295cedd0846c421ddc0b8f60029",
  "source": "pragma solidity ^0.4.11;\n\ncontract MultiNumberBettingV1 {\n  uint8[] arr;\n  uint loserCount;\n  uint winnerCount;\n\n  function MultiNumberBettingV1(uint8 first, uint8 second, uint8 third) {\n    require((first >=1 && first <=10) && (second >=1 && second <=10) && (third >=1 && third <=10));\n      arr.push(first);\n      arr.push(second);\n      arr.push(third);\n      loserCount = 0;\n      winnerCount = 0;\n    // constructor\n  }\n\n  function guess(uint8 g) returns (bool){\n    for(uint8 i = 0; i < arr.length; i++ ) {\n      if(g == arr[i]) {\n        winnerCount = winnerCount + 1;\n        return true;\n      }\n\n    }\n      loserCount = loserCount +1;\n    return false;\n  }\n\n  function getWin() constant returns (uint) {\n    return uint(winnerCount);\n  }\n\n  function getLose() constant returns (uint) {\n    return uint(loserCount);\n  }\n\n  function totalGuesses() constant returns (uint) {\n    return loserCount + winnerCount;\n  }\n\n  function() {\n    revert();\n  }\n\n}\n",
  "sourcePath": "/home/szymon/IdeaProjects/first-truffle/contracts/MultiNumberBettingV1.sol",
  "compiler": {
    "name": "solc",
    "version": "0.4.18+commit.9cf6e910.Emscripten.clang"
  },
  "schemaVersion": "1.0.1",
  "updatedAt": "2017-11-27T22:34:05.711Z"
}