{
  "contractName": "Szymon",
  "abi": [
    {
      "constant": false,
      "inputs": [],
      "name": "testFun",
      "outputs": [
        {
          "name": "",
          "type": "int32"
        }
      ],
      "payable": false,
      "type": "function",
      "stateMutability": "nonpayable"
    },
    {
      "inputs": [],
      "payable": false,
      "type": "constructor",
      "stateMutability": "nonpayable"
    }
  ],
  "bytecode": "0x6060604052606060405190810160405280600160030b60030b8152602001600260030b81526020016003800b815250600090600361003e92919061004f565b50341561004a57600080fd5b610135565b828054828255906000526020600020906007016008900481019282156100f15791602002820160005b838211156100bf57835183826101000a81548163ffffffff021916908360030b63ffffffff1602179055509260200192600401602081600301049283019260010302610078565b80156100ef5782816101000a81549063ffffffff02191690556004016020816003010492830192600103026100bf565b505b5090506100fe9190610102565b5090565b61013291905b8082111561012e57600081816101000a81549063ffffffff021916905550600101610108565b5090565b90565b61011d806101446000396000f300606060405260043610603f576000357c0100000000000000000000000000000000000000000000000000000000900463ffffffff168063855f302c146044575b600080fd5b3415604e57600080fd5b60546070565b604051808260030b60030b815260200191505060405180910390f35b6000607860dd565b600160405180591060865750595b90808252806020026020018201604052509050600981600081518110151560a957fe5b9060200190602002019060030b908160030b8152505080600081518110151560cd57fe5b9060200190602002015191505090565b6020604051908101604052806000815250905600a165627a7a72305820de6e7699d32de6462561a6d9e41ca917877d680e05bf667c1c729f495f9d48a10029",
  "source": "pragma solidity ^0.4.4;\n\n\ncontract Szymon {\n    int32[] arr = [int32(1), 2, 3];\n    function Szymon() {\n        // constructor\n    }\n\n    function testFun() returns (int32){\n        int32[] memory arr1 = new int32[](1);\n//        arr1.length = 2;\n        arr1[0] = int32(9);\n//        arr1[1] = -12;\n        return arr1[0];\n    }\n}\n",
  "sourcePath": "/home/szymon/IdeaProjects/first-truffle/contracts/Szymon.sol",
  "compiler": {
    "name": "solc",
    "version": "0.4.18+commit.9cf6e910.Emscripten.clang"
  },
  "schemaVersion": "1.0.1",
  "updatedAt": "2017-11-27T21:11:37.382Z"
}